{
  "contractName": "SsfariFactory",
  "abi": [
    {
      "anonymous": false,
      "inputs": [
        {
          "indexed": false,
          "internalType": "uint256",
          "name": "item_No",
          "type": "uint256"
        },
        {
          "indexed": false,
          "internalType": "string",
          "name": "item_name",
          "type": "string"
        },
        {
          "indexed": false,
          "internalType": "string",
          "name": "oneline_description",
          "type": "string"
        },
        {
          "indexed": false,
          "internalType": "uint32",
          "name": "item_price",
          "type": "uint32"
        },
        {
          "indexed": false,
          "internalType": "string",
          "name": "category",
          "type": "string"
        },
        {
          "indexed": false,
          "internalType": "string",
          "name": "thumbnail_picture",
          "type": "string"
        },
        {
          "indexed": false,
          "internalType": "string",
          "name": "detail_picture",
          "type": "string"
        },
        {
          "indexed": false,
          "internalType": "string",
          "name": "delivery_period",
          "type": "string"
        },
        {
          "indexed": false,
          "internalType": "string",
          "name": "detail_description",
          "type": "string"
        },
        {
          "indexed": false,
          "internalType": "address",
          "name": "seller_address",
          "type": "address"
        },
        {
          "indexed": false,
          "internalType": "string",
          "name": "seller_name",
          "type": "string"
        }
      ],
      "name": "NewItem",
      "type": "event"
    },
    {
      "inputs": [],
      "name": "PurchasePk",
      "outputs": [
        {
          "internalType": "uint256",
          "name": "",
          "type": "uint256"
        }
      ],
      "stateMutability": "view",
      "type": "function",
      "constant": true
    },
    {
      "inputs": [],
      "name": "itemPk",
      "outputs": [
        {
          "internalType": "uint256",
          "name": "",
          "type": "uint256"
        }
      ],
      "stateMutability": "view",
      "type": "function",
      "constant": true
    },
    {
      "inputs": [
        {
          "internalType": "uint256",
          "name": "",
          "type": "uint256"
        }
      ],
      "name": "items",
      "outputs": [
        {
          "internalType": "uint256",
          "name": "item_No",
          "type": "uint256"
        },
        {
          "internalType": "string",
          "name": "item_name",
          "type": "string"
        },
        {
          "internalType": "string",
          "name": "oneline_description",
          "type": "string"
        },
        {
          "internalType": "uint32",
          "name": "item_price",
          "type": "uint32"
        },
        {
          "internalType": "string",
          "name": "category",
          "type": "string"
        },
        {
          "internalType": "string",
          "name": "thumbnail_picture",
          "type": "string"
        },
        {
          "internalType": "string",
          "name": "detail_picture",
          "type": "string"
        },
        {
          "internalType": "string",
          "name": "delivery_period",
          "type": "string"
        },
        {
          "internalType": "string",
          "name": "detail_description",
          "type": "string"
        },
        {
          "internalType": "address",
          "name": "seller_address",
          "type": "address"
        },
        {
          "internalType": "string",
          "name": "seller_name",
          "type": "string"
        }
      ],
      "stateMutability": "view",
      "type": "function",
      "constant": true
    },
    {
      "inputs": [],
      "name": "paid_Pk",
      "outputs": [
        {
          "internalType": "uint256",
          "name": "",
          "type": "uint256"
        }
      ],
      "stateMutability": "view",
      "type": "function",
      "constant": true
    },
    {
      "inputs": [
        {
          "internalType": "uint256",
          "name": "",
          "type": "uint256"
        }
      ],
      "name": "paidcontracts",
      "outputs": [
        {
          "internalType": "uint256",
          "name": "paid_No",
          "type": "uint256"
        },
        {
          "internalType": "uint256",
          "name": "item_No",
          "type": "uint256"
        },
        {
          "internalType": "uint256",
          "name": "purchase_No",
          "type": "uint256"
        },
        {
          "internalType": "address",
          "name": "paid_address",
          "type": "address"
        }
      ],
      "stateMutability": "view",
      "type": "function",
      "constant": true
    },
    {
      "inputs": [
        {
          "internalType": "uint256",
          "name": "",
          "type": "uint256"
        }
      ],
      "name": "purchasecontracts",
      "outputs": [
        {
          "internalType": "uint256",
          "name": "purchase_No",
          "type": "uint256"
        },
        {
          "internalType": "uint256",
          "name": "item_No",
          "type": "uint256"
        },
        {
          "internalType": "address",
          "name": "purchase_address",
          "type": "address"
        },
        {
          "internalType": "string",
          "name": "purchase_name",
          "type": "string"
        },
        {
          "internalType": "string",
          "name": "shipping_address",
          "type": "string"
        },
        {
          "internalType": "uint32",
          "name": "total_people",
          "type": "uint32"
        },
        {
          "internalType": "uint32",
          "name": "paid_people",
          "type": "uint32"
        },
        {
          "internalType": "uint256",
          "name": "total_price",
          "type": "uint256"
        },
        {
          "internalType": "bool",
          "name": "completed",
          "type": "bool"
        },
        {
          "internalType": "uint256",
          "name": "password",
          "type": "uint256"
        },
        {
          "internalType": "address",
          "name": "seller_address",
          "type": "address"
        }
      ],
      "stateMutability": "view",
      "type": "function",
      "constant": true
    },
    {
      "inputs": [
        {
          "internalType": "string",
          "name": "item_name",
          "type": "string"
        },
        {
          "internalType": "string",
          "name": "oneline_description",
          "type": "string"
        },
        {
          "internalType": "uint32",
          "name": "item_price",
          "type": "uint32"
        },
        {
          "internalType": "string",
          "name": "category",
          "type": "string"
        },
        {
          "internalType": "string",
          "name": "thumbnail_picture",
          "type": "string"
        },
        {
          "internalType": "string",
          "name": "detail_picture",
          "type": "string"
        },
        {
          "internalType": "string",
          "name": "delivery_period",
          "type": "string"
        },
        {
          "internalType": "string",
          "name": "detail_description",
          "type": "string"
        },
        {
          "internalType": "address",
          "name": "seller_address",
          "type": "address"
        },
        {
          "internalType": "string",
          "name": "seller_name",
          "type": "string"
        }
      ],
      "name": "registerItem",
      "outputs": [
        {
          "internalType": "uint256",
          "name": "",
          "type": "uint256"
        }
      ],
      "stateMutability": "nonpayable",
      "type": "function"
    },
    {
      "inputs": [],
      "name": "viewItemNo",
      "outputs": [
        {
          "internalType": "uint256",
          "name": "",
          "type": "uint256"
        }
      ],
      "stateMutability": "view",
      "type": "function",
      "constant": true
    },
    {
      "inputs": [],
      "name": "viewItems",
      "outputs": [
        {
          "components": [
            {
              "internalType": "uint256",
              "name": "item_No",
              "type": "uint256"
            },
            {
              "internalType": "string",
              "name": "item_name",
              "type": "string"
            },
            {
              "internalType": "string",
              "name": "oneline_description",
              "type": "string"
            },
            {
              "internalType": "uint32",
              "name": "item_price",
              "type": "uint32"
            },
            {
              "internalType": "string",
              "name": "category",
              "type": "string"
            },
            {
              "internalType": "string",
              "name": "thumbnail_picture",
              "type": "string"
            },
            {
              "internalType": "string",
              "name": "detail_picture",
              "type": "string"
            },
            {
              "internalType": "string",
              "name": "delivery_period",
              "type": "string"
            },
            {
              "internalType": "string",
              "name": "detail_description",
              "type": "string"
            },
            {
              "internalType": "address",
              "name": "seller_address",
              "type": "address"
            },
            {
              "internalType": "string",
              "name": "seller_name",
              "type": "string"
            }
          ],
          "internalType": "struct SsfariFactory.Item[]",
          "name": "",
          "type": "tuple[]"
        }
      ],
      "stateMutability": "view",
      "type": "function",
      "constant": true
    },
    {
      "inputs": [
        {
          "internalType": "uint256",
          "name": "_item_No",
          "type": "uint256"
        }
      ],
      "name": "viewItemByItemNo",
      "outputs": [
        {
          "components": [
            {
              "internalType": "uint256",
              "name": "item_No",
              "type": "uint256"
            },
            {
              "internalType": "string",
              "name": "item_name",
              "type": "string"
            },
            {
              "internalType": "string",
              "name": "oneline_description",
              "type": "string"
            },
            {
              "internalType": "uint32",
              "name": "item_price",
              "type": "uint32"
            },
            {
              "internalType": "string",
              "name": "category",
              "type": "string"
            },
            {
              "internalType": "string",
              "name": "thumbnail_picture",
              "type": "string"
            },
            {
              "internalType": "string",
              "name": "detail_picture",
              "type": "string"
            },
            {
              "internalType": "string",
              "name": "delivery_period",
              "type": "string"
            },
            {
              "internalType": "string",
              "name": "detail_description",
              "type": "string"
            },
            {
              "internalType": "address",
              "name": "seller_address",
              "type": "address"
            },
            {
              "internalType": "string",
              "name": "seller_name",
              "type": "string"
            }
          ],
          "internalType": "struct SsfariFactory.Item",
          "name": "",
          "type": "tuple"
        }
      ],
      "stateMutability": "view",
      "type": "function",
      "constant": true
    },
    {
      "inputs": [
        {
          "internalType": "address",
          "name": "_seller_address",
          "type": "address"
        }
      ],
      "name": "viewSellerToItem",
      "outputs": [
        {
          "components": [
            {
              "internalType": "uint256",
              "name": "item_No",
              "type": "uint256"
            },
            {
              "internalType": "string",
              "name": "item_name",
              "type": "string"
            },
            {
              "internalType": "string",
              "name": "oneline_description",
              "type": "string"
            },
            {
              "internalType": "uint32",
              "name": "item_price",
              "type": "uint32"
            },
            {
              "internalType": "string",
              "name": "category",
              "type": "string"
            },
            {
              "internalType": "string",
              "name": "thumbnail_picture",
              "type": "string"
            },
            {
              "internalType": "string",
              "name": "detail_picture",
              "type": "string"
            },
            {
              "internalType": "string",
              "name": "delivery_period",
              "type": "string"
            },
            {
              "internalType": "string",
              "name": "detail_description",
              "type": "string"
            },
            {
              "internalType": "address",
              "name": "seller_address",
              "type": "address"
            },
            {
              "internalType": "string",
              "name": "seller_name",
              "type": "string"
            }
          ],
          "internalType": "struct SsfariFactory.Item",
          "name": "",
          "type": "tuple"
        }
      ],
      "stateMutability": "view",
      "type": "function",
      "constant": true
    },
    {
      "inputs": [
        {
          "internalType": "uint256",
          "name": "_item_No",
          "type": "uint256"
        }
      ],
      "name": "deleteItem",
      "outputs": [],
      "stateMutability": "nonpayable",
      "type": "function"
    },
    {
      "inputs": [
        {
          "internalType": "uint256",
          "name": "_item_No",
          "type": "uint256"
        },
        {
          "internalType": "address",
          "name": "_purchase_address",
          "type": "address"
        },
        {
          "internalType": "string",
          "name": "_purchase_name",
          "type": "string"
        },
        {
          "internalType": "string",
          "name": "_shipping_address",
          "type": "string"
        },
        {
          "internalType": "uint32",
          "name": "_total_people",
          "type": "uint32"
        },
        {
          "internalType": "uint32",
          "name": "_paid_people",
          "type": "uint32"
        },
        {
          "internalType": "bool",
          "name": "_completed",
          "type": "bool"
        },
        {
          "internalType": "uint256",
          "name": "_password",
          "type": "uint256"
        },
        {
          "internalType": "address",
          "name": "_seller_address",
          "type": "address"
        }
      ],
      "name": "purchaseItem",
      "outputs": [
        {
          "internalType": "uint256",
          "name": "",
          "type": "uint256"
        }
      ],
      "stateMutability": "payable",
      "type": "function",
      "payable": true
    },
    {
      "inputs": [],
      "name": "viewPurchaseNo",
      "outputs": [
        {
          "internalType": "uint256",
          "name": "",
          "type": "uint256"
        }
      ],
      "stateMutability": "view",
      "type": "function",
      "constant": true
    },
    {
      "inputs": [],
      "name": "viewPurchaseContract",
      "outputs": [
        {
          "components": [
            {
              "internalType": "uint256",
              "name": "purchase_No",
              "type": "uint256"
            },
            {
              "internalType": "uint256",
              "name": "item_No",
              "type": "uint256"
            },
            {
              "internalType": "address",
              "name": "purchase_address",
              "type": "address"
            },
            {
              "internalType": "string",
              "name": "purchase_name",
              "type": "string"
            },
            {
              "internalType": "string",
              "name": "shipping_address",
              "type": "string"
            },
            {
              "internalType": "uint32",
              "name": "total_people",
              "type": "uint32"
            },
            {
              "internalType": "uint32",
              "name": "paid_people",
              "type": "uint32"
            },
            {
              "internalType": "uint256",
              "name": "total_price",
              "type": "uint256"
            },
            {
              "internalType": "bool",
              "name": "completed",
              "type": "bool"
            },
            {
              "internalType": "uint256",
              "name": "password",
              "type": "uint256"
            },
            {
              "internalType": "address",
              "name": "seller_address",
              "type": "address"
            }
          ],
          "internalType": "struct SsfariFactory.PurchaseContract[]",
          "name": "",
          "type": "tuple[]"
        }
      ],
      "stateMutability": "view",
      "type": "function",
      "constant": true
    },
    {
      "inputs": [
        {
          "internalType": "uint256",
          "name": "purchase_No",
          "type": "uint256"
        }
      ],
      "name": "viewPurchaseContractByPurchaseNod",
      "outputs": [
        {
          "components": [
            {
              "internalType": "uint256",
              "name": "purchase_No",
              "type": "uint256"
            },
            {
              "internalType": "uint256",
              "name": "item_No",
              "type": "uint256"
            },
            {
              "internalType": "address",
              "name": "purchase_address",
              "type": "address"
            },
            {
              "internalType": "string",
              "name": "purchase_name",
              "type": "string"
            },
            {
              "internalType": "string",
              "name": "shipping_address",
              "type": "string"
            },
            {
              "internalType": "uint32",
              "name": "total_people",
              "type": "uint32"
            },
            {
              "internalType": "uint32",
              "name": "paid_people",
              "type": "uint32"
            },
            {
              "internalType": "uint256",
              "name": "total_price",
              "type": "uint256"
            },
            {
              "internalType": "bool",
              "name": "completed",
              "type": "bool"
            },
            {
              "internalType": "uint256",
              "name": "password",
              "type": "uint256"
            },
            {
              "internalType": "address",
              "name": "seller_address",
              "type": "address"
            }
          ],
          "internalType": "struct SsfariFactory.PurchaseContract",
          "name": "",
          "type": "tuple"
        }
      ],
      "stateMutability": "view",
      "type": "function",
      "constant": true
    },
    {
      "inputs": [
        {
          "internalType": "uint256",
          "name": "_item_No",
          "type": "uint256"
        },
        {
          "internalType": "uint256",
          "name": "_purchase_No",
          "type": "uint256"
        },
        {
          "internalType": "address",
          "name": "_paid_address",
          "type": "address"
        }
      ],
      "name": "paidContract",
      "outputs": [
        {
          "internalType": "uint256",
          "name": "",
          "type": "uint256"
        }
      ],
      "stateMutability": "payable",
      "type": "function",
      "payable": true
    },
    {
      "inputs": [],
      "name": "viewPaidNo",
      "outputs": [
        {
          "internalType": "uint256",
          "name": "",
          "type": "uint256"
        }
      ],
      "stateMutability": "view",
      "type": "function",
      "constant": true
    },
    {
      "inputs": [
        {
          "internalType": "uint256",
          "name": "_paid_No",
          "type": "uint256"
        },
        {
          "internalType": "uint256",
          "name": "_purchase_No",
          "type": "uint256"
        },
        {
          "internalType": "uint256",
          "name": "",
          "type": "uint256"
        },
        {
          "internalType": "address",
          "name": "_my_address",
          "type": "address"
        }
      ],
      "name": "paidcancel",
      "outputs": [
        {
          "internalType": "bool",
          "name": "",
          "type": "bool"
        }
      ],
      "stateMutability": "payable",
      "type": "function",
      "payable": true
    },
    {
      "inputs": [
        {
          "internalType": "uint256",
          "name": "_purchase_No",
          "type": "uint256"
        }
      ],
      "name": "confirmContract",
      "outputs": [
        {
          "internalType": "bool",
          "name": "",
          "type": "bool"
        }
      ],
      "stateMutability": "payable",
      "type": "function",
      "payable": true
    },
    {
      "inputs": [
        {
          "internalType": "uint256",
          "name": "_purchase_No",
          "type": "uint256"
        }
      ],
      "name": "confirmContractAddress",
      "outputs": [
        {
          "internalType": "address",
          "name": "",
          "type": "address"
        }
      ],
      "stateMutability": "view",
      "type": "function",
      "constant": true
    },
    {
      "inputs": [],
      "name": "viewPaidContract",
      "outputs": [
        {
          "components": [
            {
              "internalType": "uint256",
              "name": "paid_No",
              "type": "uint256"
            },
            {
              "internalType": "uint256",
              "name": "item_No",
              "type": "uint256"
            },
            {
              "internalType": "uint256",
              "name": "purchase_No",
              "type": "uint256"
            },
            {
              "internalType": "address",
              "name": "paid_address",
              "type": "address"
            }
          ],
          "internalType": "struct SsfariFactory.PaidContract[]",
          "name": "",
          "type": "tuple[]"
        }
      ],
      "stateMutability": "view",
      "type": "function",
      "constant": true
    },
    {
      "inputs": [
        {
          "internalType": "address",
          "name": "showmethemoneyAdd",
          "type": "address"
        }
      ],
      "name": "transferMoney",
      "outputs": [],
      "stateMutability": "payable",
      "type": "function",
      "payable": true
    }
  ],
  "bytecode": "0x608060405234801561001057600080fd5b506149a1806100206000396000f3fe6080604052600436106101405760003560e01c8063635b641c116100b65780637cff47951161006f5780637cff47951461047857806386ce9835146104a8578063bfb231d2146104c4578063ea8f56451461050b578063f6ff343214610548578063fa4345821461058557610140565b8063635b641c14610378578063643d75d1146103a3578063654fc833146103ce57806365b1147b146103f7578063725580321461042257806376093aef1461044d57610140565b806327b9ef351161010857806327b9ef351461025a57806331e3c6bb14610297578063352e4c27146102c25780633b5860a8146102f257806350832cf31461031d57806355dadc781461034d57610140565b80630212c773146101455780630ae25bc3146101825780630c2fa883146101b25780630e4fae93146101dd5780632143e5231461021d575b600080fd5b34801561015157600080fd5b5061016c600480360381019061016791906136f9565b6105cc565b604051610179919061394e565b60405180910390f35b61019c60048036038101906101979190613b35565b610b10565b6040516101a99190613c46565b60405180910390f35b3480156101be57600080fd5b506101c7610f18565b6040516101d49190613d65565b60405180910390f35b3480156101e957600080fd5b5061020460048036038101906101ff91906136f9565b610feb565b6040516102149493929190613d96565b60405180910390f35b34801561022957600080fd5b50610244600480360381019061023f9190613ddb565b61104b565b604051610251919061394e565b60405180910390f35b34801561026657600080fd5b50610281600480360381019061027c91906136f9565b6115bb565b60405161028e9190613f0d565b60405180910390f35b3480156102a357600080fd5b506102ac611848565b6040516102b99190614111565b60405180910390f35b6102dc60048036038101906102d79190614133565b611dbe565b6040516102e991906141a9565b60405180910390f35b3480156102fe57600080fd5b50610307611f95565b6040516103149190613c46565b60405180910390f35b610337600480360381019061033291906141c4565b611f9f565b6040516103449190613c46565b60405180910390f35b34801561035957600080fd5b50610362612185565b60405161036f91906143cf565b60405180910390f35b34801561038457600080fd5b5061038d612444565b60405161039a9190613c46565b60405180910390f35b3480156103af57600080fd5b506103b861244a565b6040516103c59190613c46565b60405180910390f35b3480156103da57600080fd5b506103f560048036038101906103f091906136f9565b612450565b005b34801561040357600080fd5b5061040c61253e565b6040516104199190613c46565b60405180910390f35b34801561042e57600080fd5b50610437612547565b6040516104449190613c46565b60405180910390f35b34801561045957600080fd5b50610462612551565b60405161046f9190613c46565b60405180910390f35b610492600480360381019061048d91906136f9565b612557565b60405161049f91906141a9565b60405180910390f35b6104c260048036038101906104bd9190613ddb565b612750565b005b3480156104d057600080fd5b506104eb60048036038101906104e691906136f9565b6127f9565b6040516105029b9a9998979695949392919061444a565b60405180910390f35b34801561051757600080fd5b50610532600480360381019061052d919061452d565b612cd3565b60405161053f9190613c46565b60405180910390f35b34801561055457600080fd5b5061056f600480360381019061056a91906136f9565b613262565b60405161057c91906146ec565b60405180910390f35b34801561059157600080fd5b506105ac60048036038101906105a791906136f9565b6132db565b6040516105c39b9a99989796959493929190614707565b60405180910390f35b6105d46134c2565b60026000838152602001908152602001600020604051806101600160405290816000820154815260200160018201805461060d906147ef565b80601f0160208091040260200160405190810160405280929190818152602001828054610639906147ef565b80156106865780601f1061065b57610100808354040283529160200191610686565b820191906000526020600020905b81548152906001019060200180831161066957829003601f168201915b5050505050815260200160028201805461069f906147ef565b80601f01602080910402602001604051908101604052809291908181526020018280546106cb906147ef565b80156107185780601f106106ed57610100808354040283529160200191610718565b820191906000526020600020905b8154815290600101906020018083116106fb57829003601f168201915b505050505081526020016003820160009054906101000a900463ffffffff1663ffffffff1663ffffffff168152602001600482018054610757906147ef565b80601f0160208091040260200160405190810160405280929190818152602001828054610783906147ef565b80156107d05780601f106107a5576101008083540402835291602001916107d0565b820191906000526020600020905b8154815290600101906020018083116107b357829003601f168201915b505050505081526020016005820180546107e9906147ef565b80601f0160208091040260200160405190810160405280929190818152602001828054610815906147ef565b80156108625780601f1061083757610100808354040283529160200191610862565b820191906000526020600020905b81548152906001019060200180831161084557829003601f168201915b5050505050815260200160068201805461087b906147ef565b80601f01602080910402602001604051908101604052809291908181526020018280546108a7906147ef565b80156108f45780601f106108c9576101008083540402835291602001916108f4565b820191906000526020600020905b8154815290600101906020018083116108d757829003601f168201915b5050505050815260200160078201805461090d906147ef565b80601f0160208091040260200160405190810160405280929190818152602001828054610939906147ef565b80156109865780601f1061095b57610100808354040283529160200191610986565b820191906000526020600020905b81548152906001019060200180831161096957829003601f168201915b5050505050815260200160088201805461099f906147ef565b80601f01602080910402602001604051908101604052809291908181526020018280546109cb906147ef565b8015610a185780601f106109ed57610100808354040283529160200191610a18565b820191906000526020600020905b8154815290600101906020018083116109fb57829003601f168201915b505050505081526020016009820160009054906101000a900473ffffffffffffffffffffffffffffffffffffffff1673ffffffffffffffffffffffffffffffffffffffff1673ffffffffffffffffffffffffffffffffffffffff168152602001600a82018054610a87906147ef565b80601f0160208091040260200160405190810160405280929190818152602001828054610ab3906147ef565b8015610b005780601f10610ad557610100808354040283529160200191610b00565b820191906000526020600020905b815481529060010190602001808311610ae357829003601f168201915b5050505050815250509050919050565b6000600580549050600481905550600060018b81548110610b3457610b33614820565b5b90600052602060002090600b020160030160009054906101000a900463ffffffff16905060008782610b66919061487e565b63ffffffff169050600060405180610160016040528060045481526020018e81526020018d73ffffffffffffffffffffffffffffffffffffffff1681526020018c81526020018b81526020018a63ffffffff1681526020018963ffffffff16815260200183815260200188151581526020018781526020018673ffffffffffffffffffffffffffffffffffffffff16815250905060058190806001815401808255809150506001900390600052602060002090600a0201600090919091909150600082015181600001556020820151816001015560408201518160020160006101000a81548173ffffffffffffffffffffffffffffffffffffffff021916908373ffffffffffffffffffffffffffffffffffffffff1602179055506060820151816003019080519060200190610c9d929190613538565b506080820151816004019080519060200190610cba929190613538565b5060a08201518160050160006101000a81548163ffffffff021916908363ffffffff16021790555060c08201518160050160046101000a81548163ffffffff021916908363ffffffff16021790555060e082015181600601556101008201518160070160006101000a81548160ff02191690831515021790555061012082015181600801556101408201518160090160006101000a81548173ffffffffffffffffffffffffffffffffffffffff021916908373ffffffffffffffffffffffffffffffffffffffff160217905550505080600660006004548152602001908152602001600020600082015181600001556020820151816001015560408201518160020160006101000a81548173ffffffffffffffffffffffffffffffffffffffff021916908373ffffffffffffffffffffffffffffffffffffffff1602179055506060820151816003019080519060200190610e16929190613538565b506080820151816004019080519060200190610e33929190613538565b5060a08201518160050160006101000a81548163ffffffff021916908363ffffffff16021790555060c08201518160050160046101000a81548163ffffffff021916908363ffffffff16021790555060e082015181600601556101008201518160070160006101000a81548160ff02191690831515021790555061012082015181600801556101408201518160090160006101000a81548173ffffffffffffffffffffffffffffffffffffffff021916908373ffffffffffffffffffffffffffffffffffffffff16021790555090505060045493505050509998505050505050505050565b60606009805480602002602001604051908101604052809291908181526020016000905b82821015610fe257838290600052602060002090600402016040518060800160405290816000820154815260200160018201548152602001600282015481526020016003820160009054906101000a900473ffffffffffffffffffffffffffffffffffffffff1673ffffffffffffffffffffffffffffffffffffffff1673ffffffffffffffffffffffffffffffffffffffff168152505081526020019060010190610f3c565b50505050905090565b60098181548110610ffb57600080fd5b90600052602060002090600402016000915090508060000154908060010154908060020154908060030160009054906101000a900473ffffffffffffffffffffffffffffffffffffffff16905084565b6110536134c2565b600360008373ffffffffffffffffffffffffffffffffffffffff1673ffffffffffffffffffffffffffffffffffffffff16815260200190815260200160002060405180610160016040529081600082015481526020016001820180546110b8906147ef565b80601f01602080910402602001604051908101604052809291908181526020018280546110e4906147ef565b80156111315780601f1061110657610100808354040283529160200191611131565b820191906000526020600020905b81548152906001019060200180831161111457829003601f168201915b5050505050815260200160028201805461114a906147ef565b80601f0160208091040260200160405190810160405280929190818152602001828054611176906147ef565b80156111c35780601f10611198576101008083540402835291602001916111c3565b820191906000526020600020905b8154815290600101906020018083116111a657829003601f168201915b505050505081526020016003820160009054906101000a900463ffffffff1663ffffffff1663ffffffff168152602001600482018054611202906147ef565b80601f016020809104026020016040519081016040528092919081815260200182805461122e906147ef565b801561127b5780601f106112505761010080835404028352916020019161127b565b820191906000526020600020905b81548152906001019060200180831161125e57829003601f168201915b50505050508152602001600582018054611294906147ef565b80601f01602080910402602001604051908101604052809291908181526020018280546112c0906147ef565b801561130d5780601f106112e25761010080835404028352916020019161130d565b820191906000526020600020905b8154815290600101906020018083116112f057829003601f168201915b50505050508152602001600682018054611326906147ef565b80601f0160208091040260200160405190810160405280929190818152602001828054611352906147ef565b801561139f5780601f106113745761010080835404028352916020019161139f565b820191906000526020600020905b81548152906001019060200180831161138257829003601f168201915b505050505081526020016007820180546113b8906147ef565b80601f01602080910402602001604051908101604052809291908181526020018280546113e4906147ef565b80156114315780601f1061140657610100808354040283529160200191611431565b820191906000526020600020905b81548152906001019060200180831161141457829003601f168201915b5050505050815260200160088201805461144a906147ef565b80601f0160208091040260200160405190810160405280929190818152602001828054611476906147ef565b80156114c35780601f10611498576101008083540402835291602001916114c3565b820191906000526020600020905b8154815290600101906020018083116114a657829003601f168201915b505050505081526020016009820160009054906101000a900473ffffffffffffffffffffffffffffffffffffffff1673ffffffffffffffffffffffffffffffffffffffff1673ffffffffffffffffffffffffffffffffffffffff168152602001600a82018054611532906147ef565b80601f016020809104026020016040519081016040528092919081815260200182805461155e906147ef565b80156115ab5780601f10611580576101008083540402835291602001916115ab565b820191906000526020600020905b81548152906001019060200180831161158e57829003601f168201915b5050505050815250509050919050565b6115c36135be565b600660008381526020019081526020016000206040518061016001604052908160008201548152602001600182015481526020016002820160009054906101000a900473ffffffffffffffffffffffffffffffffffffffff1673ffffffffffffffffffffffffffffffffffffffff1673ffffffffffffffffffffffffffffffffffffffff16815260200160038201805461165c906147ef565b80601f0160208091040260200160405190810160405280929190818152602001828054611688906147ef565b80156116d55780601f106116aa576101008083540402835291602001916116d5565b820191906000526020600020905b8154815290600101906020018083116116b857829003601f168201915b505050505081526020016004820180546116ee906147ef565b80601f016020809104026020016040519081016040528092919081815260200182805461171a906147ef565b80156117675780601f1061173c57610100808354040283529160200191611767565b820191906000526020600020905b81548152906001019060200180831161174a57829003601f168201915b505050505081526020016005820160009054906101000a900463ffffffff1663ffffffff1663ffffffff1681526020016005820160049054906101000a900463ffffffff1663ffffffff1663ffffffff168152602001600682015481526020016007820160009054906101000a900460ff16151515158152602001600882015481526020016009820160009054906101000a900473ffffffffffffffffffffffffffffffffffffffff1673ffffffffffffffffffffffffffffffffffffffff1673ffffffffffffffffffffffffffffffffffffffff16815250509050919050565b60606001805480602002602001604051908101604052809291908181526020016000905b82821015611db557838290600052602060002090600b020160405180610160016040529081600082015481526020016001820180546118aa906147ef565b80601f01602080910402602001604051908101604052809291908181526020018280546118d6906147ef565b80156119235780601f106118f857610100808354040283529160200191611923565b820191906000526020600020905b81548152906001019060200180831161190657829003601f168201915b5050505050815260200160028201805461193c906147ef565b80601f0160208091040260200160405190810160405280929190818152602001828054611968906147ef565b80156119b55780601f1061198a576101008083540402835291602001916119b5565b820191906000526020600020905b81548152906001019060200180831161199857829003601f168201915b505050505081526020016003820160009054906101000a900463ffffffff1663ffffffff1663ffffffff1681526020016004820180546119f4906147ef565b80601f0160208091040260200160405190810160405280929190818152602001828054611a20906147ef565b8015611a6d5780601f10611a4257610100808354040283529160200191611a6d565b820191906000526020600020905b815481529060010190602001808311611a5057829003601f168201915b50505050508152602001600582018054611a86906147ef565b80601f0160208091040260200160405190810160405280929190818152602001828054611ab2906147ef565b8015611aff5780601f10611ad457610100808354040283529160200191611aff565b820191906000526020600020905b815481529060010190602001808311611ae257829003601f168201915b50505050508152602001600682018054611b18906147ef565b80601f0160208091040260200160405190810160405280929190818152602001828054611b44906147ef565b8015611b915780601f10611b6657610100808354040283529160200191611b91565b820191906000526020600020905b815481529060010190602001808311611b7457829003601f168201915b50505050508152602001600782018054611baa906147ef565b80601f0160208091040260200160405190810160405280929190818152602001828054611bd6906147ef565b8015611c235780601f10611bf857610100808354040283529160200191611c23565b820191906000526020600020905b815481529060010190602001808311611c0657829003601f168201915b50505050508152602001600882018054611c3c906147ef565b80601f0160208091040260200160405190810160405280929190818152602001828054611c68906147ef565b8015611cb55780601f10611c8a57610100808354040283529160200191611cb5565b820191906000526020600020905b815481529060010190602001808311611c9857829003601f168201915b505050505081526020016009820160009054906101000a900473ffffffffffffffffffffffffffffffffffffffff1673ffffffffffffffffffffffffffffffffffffffff1673ffffffffffffffffffffffffffffffffffffffff168152602001600a82018054611d24906147ef565b80601f0160208091040260200160405190810160405280929190818152602001828054611d50906147ef565b8015611d9d5780601f10611d7257610100808354040283529160200191611d9d565b820191906000526020600020905b815481529060010190602001808311611d8057829003601f168201915b5050505050815250508152602001906001019061186c565b50505050905090565b600080600160098781548110611dd757611dd6614820565b5b90600052602060002090600402016001015481548110611dfa57611df9614820565b5b90600052602060002090600b020160030160009054906101000a900463ffffffff1690508273ffffffffffffffffffffffffffffffffffffffff166108fc8263ffffffff169081150290604051600060405180830381858888f19350505050158015611e6a573d6000803e3d6000fd5b5060098681548110611e7f57611e7e614820565b5b9060005260206000209060040201600080820160009055600182016000905560028201600090556003820160006101000a81549073ffffffffffffffffffffffffffffffffffffffff0219169055505060058581548110611ee357611ee2614820565b5b90600052602060002090600a0201600501600481819054906101000a900463ffffffff1680929190611f14906148bc565b91906101000a81548163ffffffff021916908363ffffffff1602179055505060066000868152602001908152602001600020600501600481819054906101000a900463ffffffff1680929190611f69906148bc565b91906101000a81548163ffffffff021916908363ffffffff160217905550506001915050949350505050565b6000600454905090565b600080151560058481548110611fb857611fb7614820565b5b90600052602060002090600a020160070160009054906101000a900460ff16151514611fe357600080fd5b6009805490506008819055506000604051806080016040528060085481526020018681526020018581526020018473ffffffffffffffffffffffffffffffffffffffff168152509050600981908060018154018082558091505060019003906000526020600020906004020160009091909190915060008201518160000155602082015181600101556040820151816002015560608201518160030160006101000a81548173ffffffffffffffffffffffffffffffffffffffff021916908373ffffffffffffffffffffffffffffffffffffffff1602179055505050600584815481106120d3576120d2614820565b5b90600052602060002090600a0201600501600481819054906101000a900463ffffffff1680929190612104906148e5565b91906101000a81548163ffffffff021916908363ffffffff1602179055505060066000858152602001908152602001600020600501600481819054906101000a900463ffffffff1680929190612159906148e5565b91906101000a81548163ffffffff021916908363ffffffff160217905550506008549150509392505050565b60606005805480602002602001604051908101604052809291908181526020016000905b8282101561243b57838290600052602060002090600a02016040518061016001604052908160008201548152602001600182015481526020016002820160009054906101000a900473ffffffffffffffffffffffffffffffffffffffff1673ffffffffffffffffffffffffffffffffffffffff1673ffffffffffffffffffffffffffffffffffffffff168152602001600382018054612247906147ef565b80601f0160208091040260200160405190810160405280929190818152602001828054612273906147ef565b80156122c05780601f10612295576101008083540402835291602001916122c0565b820191906000526020600020905b8154815290600101906020018083116122a357829003601f168201915b505050505081526020016004820180546122d9906147ef565b80601f0160208091040260200160405190810160405280929190818152602001828054612305906147ef565b80156123525780601f1061232757610100808354040283529160200191612352565b820191906000526020600020905b81548152906001019060200180831161233557829003601f168201915b505050505081526020016005820160009054906101000a900463ffffffff1663ffffffff1663ffffffff1681526020016005820160049054906101000a900463ffffffff1663ffffffff1663ffffffff168152602001600682015481526020016007820160009054906101000a900460ff16151515158152602001600882015481526020016009820160009054906101000a900473ffffffffffffffffffffffffffffffffffffffff1673ffffffffffffffffffffffffffffffffffffffff1673ffffffffffffffffffffffffffffffffffffffff1681525050815260200190600101906121a9565b50505050905090565b60085481565b60005481565b6001818154811061246457612463614820565b5b90600052602060002090600b020160008082016000905560018201600061248b9190613652565b60028201600061249b9190613652565b6003820160006101000a81549063ffffffff02191690556004820160006124c29190613652565b6005820160006124d29190613652565b6006820160006124e29190613652565b6007820160006124f29190613652565b6008820160006125029190613652565b6009820160006101000a81549073ffffffffffffffffffffffffffffffffffffffff0219169055600a820160006125399190613652565b505050565b60008054905090565b6000600854905090565b60045481565b60006005828154811061256d5761256c614820565b5b90600052602060002090600a020160050160009054906101000a900463ffffffff1663ffffffff16600583815481106125a9576125a8614820565b5b90600052602060002090600a020160050160049054906101000a900463ffffffff1663ffffffff1610156125dc57600080fd5b6001600583815481106125f2576125f1614820565b5b90600052602060002090600a020160070160006101000a81548160ff02191690831515021790555060016006600084815260200190815260200160002060070160006101000a81548160ff021916908315150217905550600060016005848154811061266157612660614820565b5b90600052602060002090600a0201600101548154811061268457612683614820565b5b90600052602060002090600b020160090160009054906101000a900473ffffffffffffffffffffffffffffffffffffffff1690506000600584815481106126ce576126cd614820565b5b90600052602060002090600a02016006015490508173ffffffffffffffffffffffffffffffffffffffff166108fc6402540be40060058461270f9190614911565b6127199190614911565b9081150290604051600060405180830381858888f19350505050158015612744573d6000803e3d6000fd5b50600192505050919050565b6001600a60008373ffffffffffffffffffffffffffffffffffffffff1673ffffffffffffffffffffffffffffffffffffffff16815260200190815260200160002060006101000a81548160ff0219169083151502179055508073ffffffffffffffffffffffffffffffffffffffff166108fc66b1a2bc2ec500009081150290604051600060405180830381858888f193505050501580156127f5573d6000803e3d6000fd5b5050565b6001818154811061280957600080fd5b90600052602060002090600b0201600091509050806000015490806001018054612832906147ef565b80601f016020809104026020016040519081016040528092919081815260200182805461285e906147ef565b80156128ab5780601f10612880576101008083540402835291602001916128ab565b820191906000526020600020905b81548152906001019060200180831161288e57829003601f168201915b5050505050908060020180546128c0906147ef565b80601f01602080910402602001604051908101604052809291908181526020018280546128ec906147ef565b80156129395780601f1061290e57610100808354040283529160200191612939565b820191906000526020600020905b81548152906001019060200180831161291c57829003601f168201915b5050505050908060030160009054906101000a900463ffffffff1690806004018054612964906147ef565b80601f0160208091040260200160405190810160405280929190818152602001828054612990906147ef565b80156129dd5780601f106129b2576101008083540402835291602001916129dd565b820191906000526020600020905b8154815290600101906020018083116129c057829003601f168201915b5050505050908060050180546129f2906147ef565b80601f0160208091040260200160405190810160405280929190818152602001828054612a1e906147ef565b8015612a6b5780601f10612a4057610100808354040283529160200191612a6b565b820191906000526020600020905b815481529060010190602001808311612a4e57829003601f168201915b505050505090806006018054612a80906147ef565b80601f0160208091040260200160405190810160405280929190818152602001828054612aac906147ef565b8015612af95780601f10612ace57610100808354040283529160200191612af9565b820191906000526020600020905b815481529060010190602001808311612adc57829003601f168201915b505050505090806007018054612b0e906147ef565b80601f0160208091040260200160405190810160405280929190818152602001828054612b3a906147ef565b8015612b875780601f10612b5c57610100808354040283529160200191612b87565b820191906000526020600020905b815481529060010190602001808311612b6a57829003601f168201915b505050505090806008018054612b9c906147ef565b80601f0160208091040260200160405190810160405280929190818152602001828054612bc8906147ef565b8015612c155780601f10612bea57610100808354040283529160200191612c15565b820191906000526020600020905b815481529060010190602001808311612bf857829003601f168201915b5050505050908060090160009054906101000a900473ffffffffffffffffffffffffffffffffffffffff169080600a018054612c50906147ef565b80601f0160208091040260200160405190810160405280929190818152602001828054612c7c906147ef565b8015612cc95780601f10612c9e57610100808354040283529160200191612cc9565b820191906000526020600020905b815481529060010190602001808311612cac57829003601f168201915b505050505090508b565b6000600180549050600081905550600060405180610160016040528060005481526020018d81526020018c81526020018b63ffffffff1681526020018a81526020018981526020018881526020018781526020018681526020018573ffffffffffffffffffffffffffffffffffffffff16815260200184815250905060018190806001815401808255809150506001900390600052602060002090600b0201600090919091909150600082015181600001556020820151816001019080519060200190612da1929190613538565b506040820151816002019080519060200190612dbe929190613538565b5060608201518160030160006101000a81548163ffffffff021916908363ffffffff1602179055506080820151816004019080519060200190612e02929190613538565b5060a0820151816005019080519060200190612e1f929190613538565b5060c0820151816006019080519060200190612e3c929190613538565b5060e0820151816007019080519060200190612e59929190613538565b50610100820151816008019080519060200190612e77929190613538565b506101208201518160090160006101000a81548173ffffffffffffffffffffffffffffffffffffffff021916908373ffffffffffffffffffffffffffffffffffffffff16021790555061014082015181600a019080519060200190612edd929190613538565b5050507ffb02e9eaa53354c5a6404690fab7e8419336abedd49bcc22e8f7b5c7d36ecd346000548d8d8d8d8d8d8d8d8d8d604051612f259b9a9998979695949392919061444a565b60405180910390a1806002600080548152602001908152602001600020600082015181600001556020820151816001019080519060200190612f68929190613538565b506040820151816002019080519060200190612f85929190613538565b5060608201518160030160006101000a81548163ffffffff021916908363ffffffff1602179055506080820151816004019080519060200190612fc9929190613538565b5060a0820151816005019080519060200190612fe6929190613538565b5060c0820151816006019080519060200190613003929190613538565b5060e0820151816007019080519060200190613020929190613538565b5061010082015181600801908051906020019061303e929190613538565b506101208201518160090160006101000a81548173ffffffffffffffffffffffffffffffffffffffff021916908373ffffffffffffffffffffffffffffffffffffffff16021790555061014082015181600a0190805190602001906130a4929190613538565b5090505080600360008673ffffffffffffffffffffffffffffffffffffffff1673ffffffffffffffffffffffffffffffffffffffff16815260200190815260200160002060008201518160000155602082015181600101908051906020019061310e929190613538565b50604082015181600201908051906020019061312b929190613538565b5060608201518160030160006101000a81548163ffffffff021916908363ffffffff160217905550608082015181600401908051906020019061316f929190613538565b5060a082015181600501908051906020019061318c929190613538565b5060c08201518160060190805190602001906131a9929190613538565b5060e08201518160070190805190602001906131c6929190613538565b506101008201518160080190805190602001906131e4929190613538565b506101208201518160090160006101000a81548173ffffffffffffffffffffffffffffffffffffffff021916908373ffffffffffffffffffffffffffffffffffffffff16021790555061014082015181600a01908051906020019061324a929190613538565b509050506000549150509a9950505050505050505050565b60008060016005848154811061327b5761327a614820565b5b90600052602060002090600a0201600101548154811061329e5761329d614820565b5b90600052602060002090600b020160090160009054906101000a900473ffffffffffffffffffffffffffffffffffffffff16905080915050919050565b600581815481106132eb57600080fd5b90600052602060002090600a02016000915090508060000154908060010154908060020160009054906101000a900473ffffffffffffffffffffffffffffffffffffffff1690806003018054613340906147ef565b80601f016020809104026020016040519081016040528092919081815260200182805461336c906147ef565b80156133b95780601f1061338e576101008083540402835291602001916133b9565b820191906000526020600020905b81548152906001019060200180831161339c57829003601f168201915b5050505050908060040180546133ce906147ef565b80601f01602080910402602001604051908101604052809291908181526020018280546133fa906147ef565b80156134475780601f1061341c57610100808354040283529160200191613447565b820191906000526020600020905b81548152906001019060200180831161342a57829003601f168201915b5050505050908060050160009054906101000a900463ffffffff16908060050160049054906101000a900463ffffffff16908060060154908060070160009054906101000a900460ff16908060080154908060090160009054906101000a900473ffffffffffffffffffffffffffffffffffffffff1690508b565b604051806101600160405280600081526020016060815260200160608152602001600063ffffffff1681526020016060815260200160608152602001606081526020016060815260200160608152602001600073ffffffffffffffffffffffffffffffffffffffff168152602001606081525090565b828054613544906147ef565b90600052602060002090601f01602090048101928261356657600085556135ad565b82601f1061357f57805160ff19168380011785556135ad565b828001600101855582156135ad579182015b828111156135ac578251825591602001919060010190613591565b5b5090506135ba9190613692565b5090565b6040518061016001604052806000815260200160008152602001600073ffffffffffffffffffffffffffffffffffffffff1681526020016060815260200160608152602001600063ffffffff168152602001600063ffffffff1681526020016000815260200160001515815260200160008152602001600073ffffffffffffffffffffffffffffffffffffffff1681525090565b50805461365e906147ef565b6000825580601f10613670575061368f565b601f01602090049060005260206000209081019061368e9190613692565b5b50565b5b808211156136ab576000816000905550600101613693565b5090565b6000604051905090565b600080fd5b600080fd5b6000819050919050565b6136d6816136c3565b81146136e157600080fd5b50565b6000813590506136f3816136cd565b92915050565b60006020828403121561370f5761370e6136b9565b5b600061371d848285016136e4565b91505092915050565b61372f816136c3565b82525050565b600081519050919050565b600082825260208201905092915050565b60005b8381101561376f578082015181840152602081019050613754565b8381111561377e576000848401525b50505050565b6000601f19601f8301169050919050565b60006137a082613735565b6137aa8185613740565b93506137ba818560208601613751565b6137c381613784565b840191505092915050565b600063ffffffff82169050919050565b6137e7816137ce565b82525050565b600073ffffffffffffffffffffffffffffffffffffffff82169050919050565b6000613818826137ed565b9050919050565b6138288161380d565b82525050565b6000610160830160008301516138476000860182613726565b506020830151848203602086015261385f8282613795565b915050604083015184820360408601526138798282613795565b915050606083015161388e60608601826137de565b50608083015184820360808601526138a68282613795565b91505060a083015184820360a08601526138c08282613795565b91505060c083015184820360c08601526138da8282613795565b91505060e083015184820360e08601526138f48282613795565b9150506101008301518482036101008601526139108282613795565b91505061012083015161392761012086018261381f565b506101408301518482036101408601526139418282613795565b9150508091505092915050565b60006020820190508181036000830152613968818461382e565b905092915050565b6139798161380d565b811461398457600080fd5b50565b60008135905061399681613970565b92915050565b600080fd5b600080fd5b7f4e487b7100000000000000000000000000000000000000000000000000000000600052604160045260246000fd5b6139de82613784565b810181811067ffffffffffffffff821117156139fd576139fc6139a6565b5b80604052505050565b6000613a106136af565b9050613a1c82826139d5565b919050565b600067ffffffffffffffff821115613a3c57613a3b6139a6565b5b613a4582613784565b9050602081019050919050565b82818337600083830152505050565b6000613a74613a6f84613a21565b613a06565b905082815260208101848484011115613a9057613a8f6139a1565b5b613a9b848285613a52565b509392505050565b600082601f830112613ab857613ab761399c565b5b8135613ac8848260208601613a61565b91505092915050565b613ada816137ce565b8114613ae557600080fd5b50565b600081359050613af781613ad1565b92915050565b60008115159050919050565b613b1281613afd565b8114613b1d57600080fd5b50565b600081359050613b2f81613b09565b92915050565b60008060008060008060008060006101208a8c031215613b5857613b576136b9565b5b6000613b668c828d016136e4565b9950506020613b778c828d01613987565b98505060408a013567ffffffffffffffff811115613b9857613b976136be565b5b613ba48c828d01613aa3565b97505060608a013567ffffffffffffffff811115613bc557613bc46136be565b5b613bd18c828d01613aa3565b9650506080613be28c828d01613ae8565b95505060a0613bf38c828d01613ae8565b94505060c0613c048c828d01613b20565b93505060e0613c158c828d016136e4565b925050610100613c278c828d01613987565b9150509295985092959850929598565b613c40816136c3565b82525050565b6000602082019050613c5b6000830184613c37565b92915050565b600081519050919050565b600082825260208201905092915050565b6000819050602082019050919050565b608082016000820151613ca36000850182613726565b506020820151613cb66020850182613726565b506040820151613cc96040850182613726565b506060820151613cdc606085018261381f565b50505050565b6000613cee8383613c8d565b60808301905092915050565b6000602082019050919050565b6000613d1282613c61565b613d1c8185613c6c565b9350613d2783613c7d565b8060005b83811015613d58578151613d3f8882613ce2565b9750613d4a83613cfa565b925050600181019050613d2b565b5085935050505092915050565b60006020820190508181036000830152613d7f8184613d07565b905092915050565b613d908161380d565b82525050565b6000608082019050613dab6000830187613c37565b613db86020830186613c37565b613dc56040830185613c37565b613dd26060830184613d87565b95945050505050565b600060208284031215613df157613df06136b9565b5b6000613dff84828501613987565b91505092915050565b613e1181613afd565b82525050565b600061016083016000830151613e306000860182613726565b506020830151613e436020860182613726565b506040830151613e56604086018261381f565b5060608301518482036060860152613e6e8282613795565b91505060808301518482036080860152613e888282613795565b91505060a0830151613e9d60a08601826137de565b5060c0830151613eb060c08601826137de565b5060e0830151613ec360e0860182613726565b50610100830151613ed8610100860182613e08565b50610120830151613eed610120860182613726565b50610140830151613f0261014086018261381f565b508091505092915050565b60006020820190508181036000830152613f278184613e17565b905092915050565b600081519050919050565b600082825260208201905092915050565b6000819050602082019050919050565b600061016083016000830151613f746000860182613726565b5060208301518482036020860152613f8c8282613795565b91505060408301518482036040860152613fa68282613795565b9150506060830151613fbb60608601826137de565b5060808301518482036080860152613fd38282613795565b91505060a083015184820360a0860152613fed8282613795565b91505060c083015184820360c08601526140078282613795565b91505060e083015184820360e08601526140218282613795565b91505061010083015184820361010086015261403d8282613795565b91505061012083015161405461012086018261381f565b5061014083015184820361014086015261406e8282613795565b9150508091505092915050565b60006140878383613f5b565b905092915050565b6000602082019050919050565b60006140a782613f2f565b6140b18185613f3a565b9350836020820285016140c385613f4b565b8060005b858110156140ff57848403895281516140e0858261407b565b94506140eb8361408f565b925060208a019950506001810190506140c7565b50829750879550505050505092915050565b6000602082019050818103600083015261412b818461409c565b905092915050565b6000806000806080858703121561414d5761414c6136b9565b5b600061415b878288016136e4565b945050602061416c878288016136e4565b935050604061417d878288016136e4565b925050606061418e87828801613987565b91505092959194509250565b6141a381613afd565b82525050565b60006020820190506141be600083018461419a565b92915050565b6000806000606084860312156141dd576141dc6136b9565b5b60006141eb868287016136e4565b93505060206141fc868287016136e4565b925050604061420d86828701613987565b9150509250925092565b600081519050919050565b600082825260208201905092915050565b6000819050602082019050919050565b60006101608301600083015161425c6000860182613726565b50602083015161426f6020860182613726565b506040830151614282604086018261381f565b506060830151848203606086015261429a8282613795565b915050608083015184820360808601526142b48282613795565b91505060a08301516142c960a08601826137de565b5060c08301516142dc60c08601826137de565b5060e08301516142ef60e0860182613726565b50610100830151614304610100860182613e08565b50610120830151614319610120860182613726565b5061014083015161432e61014086018261381f565b508091505092915050565b60006143458383614243565b905092915050565b6000602082019050919050565b600061436582614217565b61436f8185614222565b93508360208202850161438185614233565b8060005b858110156143bd578484038952815161439e8582614339565b94506143a98361434d565b925060208a01995050600181019050614385565b50829750879550505050505092915050565b600060208201905081810360008301526143e9818461435a565b905092915050565b600082825260208201905092915050565b600061440d82613735565b61441781856143f1565b9350614427818560208601613751565b61443081613784565b840191505092915050565b614444816137ce565b82525050565b600061016082019050614460600083018e613c37565b8181036020830152614472818d614402565b90508181036040830152614486818c614402565b9050614495606083018b61443b565b81810360808301526144a7818a614402565b905081810360a08301526144bb8189614402565b905081810360c08301526144cf8188614402565b905081810360e08301526144e38187614402565b90508181036101008301526144f88186614402565b9050614508610120830185613d87565b81810361014083015261451b8184614402565b90509c9b505050505050505050505050565b6000806000806000806000806000806101408b8d031215614551576145506136b9565b5b60008b013567ffffffffffffffff81111561456f5761456e6136be565b5b61457b8d828e01613aa3565b9a505060208b013567ffffffffffffffff81111561459c5761459b6136be565b5b6145a88d828e01613aa3565b99505060406145b98d828e01613ae8565b98505060608b013567ffffffffffffffff8111156145da576145d96136be565b5b6145e68d828e01613aa3565b97505060808b013567ffffffffffffffff811115614607576146066136be565b5b6146138d828e01613aa3565b96505060a08b013567ffffffffffffffff811115614634576146336136be565b5b6146408d828e01613aa3565b95505060c08b013567ffffffffffffffff811115614661576146606136be565b5b61466d8d828e01613aa3565b94505060e08b013567ffffffffffffffff81111561468e5761468d6136be565b5b61469a8d828e01613aa3565b9350506101006146ac8d828e01613987565b9250506101208b013567ffffffffffffffff8111156146ce576146cd6136be565b5b6146da8d828e01613aa3565b9150509295989b9194979a5092959850565b60006020820190506147016000830184613d87565b92915050565b60006101608201905061471d600083018e613c37565b61472a602083018d613c37565b614737604083018c613d87565b8181036060830152614749818b614402565b9050818103608083015261475d818a614402565b905061476c60a083018961443b565b61477960c083018861443b565b61478660e0830187613c37565b61479461010083018661419a565b6147a2610120830185613c37565b6147b0610140830184613d87565b9c9b505050505050505050505050565b7f4e487b7100000000000000000000000000000000000000000000000000000000600052602260045260246000fd5b6000600282049050600182168061480757607f821691505b60208210810361481a576148196147c0565b5b50919050565b7f4e487b7100000000000000000000000000000000000000000000000000000000600052603260045260246000fd5b7f4e487b7100000000000000000000000000000000000000000000000000000000600052601160045260246000fd5b6000614889826137ce565b9150614894836137ce565b92508163ffffffff04831182151516156148b1576148b061484f565b5b828202905092915050565b60006148c7826137ce565b9150600082036148da576148d961484f565b5b600182039050919050565b60006148f0826137ce565b915063ffffffff82036149065761490561484f565b5b600182019050919050565b600061491c826136c3565b9150614927836136c3565b9250817fffffffffffffffffffffffffffffffffffffffffffffffffffffffffffffffff04831182151516156149605761495f61484f565b5b82820290509291505056fea2646970667358221220cf35c2c6eee296d30b832f80cd383fffbda8f8be5618c3eba762802774b1dba564736f6c634300080e0033",
  "immutableReferences": {},
  "source": "// SPDX-License-Identifier: MIT\r\npragma solidity >=0.4.22 <0.9.0;\r\n\r\ncontract SsfariFactory {\r\n  struct Item {\r\n    uint item_No;\r\n    string item_name;\r\n    string oneline_description;\r\n    uint32 item_price;\r\n    string category;\r\n    string thumbnail_picture;\r\n    string detail_picture;\r\n    string delivery_period;\r\n    string detail_description;\r\n    address seller_address;\r\n    string seller_name;\r\n  }\r\n\r\n  //  event\r\n  event NewItem(uint item_No, string item_name, string oneline_description, \r\n                        uint32 item_price, string category,\r\n                        string thumbnail_picture, string detail_picture, \r\n                        string delivery_period, string detail_description, address seller_address, string seller_name);\r\n\r\n  //  variable\r\n  uint public itemPk;\r\n  Item[] public items;\r\n\r\n  //  map\r\n  mapping(uint => Item) itemNoToItem;\r\n  mapping(address => Item) sellerToItem;\r\n  // mapping(address => Item) paidaddrToItem;\r\n  //  variable\r\n  uint public PurchasePk;\r\n  PurchaseContract[] public purchasecontracts;\r\n  //  map\r\n  mapping(uint => PurchaseContract) purchaseNoToPurchaseContract;\r\n  mapping(address => PurchaseContract) paidToPurchaseContract;\r\n  //  variable\r\n  uint public paid_Pk;\r\n  PaidContract[] public paidcontracts;\r\n  //  map\r\n\r\n  \r\n  //  :   \r\n  function registerItem(string memory item_name, string memory oneline_description, \r\n                        uint32 item_price, string memory category,\r\n                        string memory thumbnail_picture, string memory detail_picture, \r\n                        string memory delivery_period, string memory detail_description, \r\n                        address seller_address, string memory seller_name) public returns (uint){\r\n    itemPk = items.length;\r\n    Item memory item = Item(itemPk, item_name, oneline_description, \r\n                        item_price, category, thumbnail_picture,detail_picture, \r\n                        delivery_period ,detail_description, \r\n                        seller_address, seller_name);\r\n    items.push(item);\r\n    emit NewItem(itemPk, item_name, oneline_description, \r\n                  item_price, category,\r\n                  thumbnail_picture, detail_picture, \r\n                  delivery_period, detail_description, seller_address, seller_name);\r\n    itemNoToItem[itemPk]= item;\r\n    sellerToItem[seller_address] = item;\r\n    return itemPk;\r\n  }\r\n  //  :     \r\n  function viewItemNo() public view returns (uint) {\r\n    return itemPk;\r\n  }\r\n  //  :   \r\n  function viewItems() public view returns (Item[] memory) {\r\n    return items;\r\n  }\r\n    //  :  \r\n  function viewItemByItemNo(uint _item_No) public view returns (Item memory) {\r\n    return itemNoToItem[_item_No];\r\n  }\r\n  //   \r\n  function viewSellerToItem(address _seller_address) public view returns (Item memory) {\r\n    return sellerToItem[_seller_address];\r\n  }\r\n  //  :  ( )\r\n  // function editItem(uint item_No, string memory item_name, string memory oneline_description, \r\n  //                   uint32 item_price, string memory category,\r\n  //                   string memory thumbnail_picture, string memory detail_picture, \r\n  //                   string memory delivery_period, uint32 sales_unit, \r\n  //                   string memory item_origin, string memory detail_description, address seller_address) public view returns (Item memory) {\r\n  //   Item memory selectItem = items[item_No];\r\n  //   selectItem.item_name = item_name;\r\n  //   selectItem.oneline_description = oneline_description;\r\n  //   selectItem.item_price = item_price;\r\n  //   selectItem.category = category;\r\n  //   selectItem.thumbnail_picture = thumbnail_picture;\r\n  //   selectItem.detail_picture = detail_picture;\r\n  //   selectItem.delivery_period = delivery_period;\r\n  //   selectItem.sales_unit = sales_unit;\r\n  //   selectItem.item_origin = item_origin;\r\n  //   selectItem.detail_description = detail_description;\r\n\r\n  //   items[item_No] = selectItem;\r\n  //   sellerToItem[seller_address] = selectItem;\r\n  //   return selectItem;\r\n  // }\r\n\r\n  //  :   ( items length  .)\r\n  function deleteItem(uint _item_No) public {\r\n    delete items[_item_No];\r\n  }\r\n\r\n  //  :    >  ( )\r\n  function purchaseItem(uint _item_No, address _purchase_address, string memory _purchase_name, string memory _shipping_address, uint32 _total_people, uint32 _paid_people, bool _completed, uint _password, address _seller_address) payable public returns (uint){\r\n    PurchasePk = purchasecontracts.length;\r\n    uint32 puchaseContractPrice = items[_item_No].item_price;\r\n    uint _total_price = puchaseContractPrice * _total_people;\r\n    PurchaseContract memory purchaseContract = PurchaseContract(PurchasePk, _item_No, _purchase_address, _purchase_name, _shipping_address, _total_people,  _paid_people, _total_price, _completed, _password, _seller_address);\r\n    purchasecontracts.push(purchaseContract);\r\n    \r\n    // Item memory item = items[_item_No];\r\n    purchaseNoToPurchaseContract[PurchasePk] = purchaseContract;\r\n    return PurchasePk;\r\n  }\r\n\r\n  //  :    \r\n  function viewPurchaseNo() public view returns (uint) {\r\n    return PurchasePk;\r\n  }\r\n  //  :  /  \r\n  struct PurchaseContract {\r\n    uint purchase_No;\r\n    uint item_No;\r\n    address purchase_address;\r\n    string purchase_name;\r\n    string shipping_address;\r\n    uint32 total_people;\r\n    uint32 paid_people;\r\n    uint total_price;\r\n    bool completed;\r\n    uint password;\r\n    address seller_address;\r\n  }\r\n\r\n  struct PaidContract {\r\n    uint paid_No;\r\n    uint item_No;\r\n    uint purchase_No;\r\n    address paid_address;\r\n  }\r\n\r\n  //  :  \r\n  function viewPurchaseContract() public view returns (PurchaseContract[] memory) {\r\n    return purchasecontracts;\r\n  }\r\n  //  :  \r\n  function viewPurchaseContractByPurchaseNod(uint purchase_No) public view returns (PurchaseContract memory) {\r\n    return purchaseNoToPurchaseContract[purchase_No];\r\n  }\r\n  //  :   (  ) from    .\r\n  function paidContract(uint _item_No, uint _purchase_No, address _paid_address) payable external returns (uint) {\r\n    require(purchasecontracts[_purchase_No].completed == false);\r\n    paid_Pk = paidcontracts.length;\r\n    PaidContract memory paidcontract = PaidContract(paid_Pk, _item_No, _purchase_No, _paid_address);\r\n    paidcontracts.push(paidcontract);\r\n    purchasecontracts[_purchase_No].paid_people++;\r\n\r\n    purchaseNoToPurchaseContract[_purchase_No].paid_people++;\r\n    return paid_Pk;\r\n  }\r\n  //  :    No\r\n  function viewPaidNo() public view returns (uint) {\r\n    return paid_Pk;\r\n  }\r\n  //  :   (  )\r\n  function paidcancel(uint _paid_No, uint _purchase_No, uint, address _my_address) payable public returns (bool) {\r\n    uint32 amount = items[paidcontracts[_paid_No].item_No].item_price;\r\n    payable(_my_address).transfer(amount);\r\n    delete paidcontracts[_paid_No];\r\n    purchasecontracts[_purchase_No].paid_people--;\r\n    purchaseNoToPurchaseContract[_purchase_No].paid_people--;\r\n\r\n    return true;\r\n  }\r\n  //  :   ( ) => ( ) \r\n  function confirmContract(uint _purchase_No) payable public returns (bool) {\r\n    require(purchasecontracts[_purchase_No].paid_people >= purchasecontracts[_purchase_No].total_people);\r\n    purchasecontracts[_purchase_No].completed = true;\r\n    purchaseNoToPurchaseContract[_purchase_No].completed = true;\r\n    address selleradd = items[purchasecontracts[_purchase_No].item_No].seller_address;\r\n    uint sellerprice = purchasecontracts[_purchase_No].total_price;    \r\n    payable(selleradd).transfer(sellerprice * 5 * 1e10);\r\n    return true;\r\n  }\r\n  //  :    \r\n  function confirmContractAddress(uint _purchase_No) public view returns (address){\r\n    address selleradd = items[purchasecontracts[_purchase_No].item_No].seller_address;\r\n    return selleradd;\r\n  }\r\n  //  :    \r\n  function viewPaidContract() public view returns (PaidContract[] memory) {\r\n    return paidcontracts;\r\n  }\r\n  mapping (address => bool) transferedlist;\r\n  //  :  ( front    )\r\n  function transferMoney(address showmethemoneyAdd) payable public {\r\n    transferedlist[showmethemoneyAdd] = true;\r\n    payable(showmethemoneyAdd).transfer(5 * 1e16);\r\n  }\r\n}\r\n",
  "sourcePath": "C:\\Users\\multicampus\\Desktop\\test555\\truffle\\contracts\\SsfariFactory.sol",
  "compiler": {
    "name": "solc",
    "version": "0.8.14+commit.80d49f37.Emscripten.clang"
  },
  "schemaVersion": "3.4.10",
  "updatedAt": "2022-10-06T10:00:39.713Z",
  "networkType": "ethereum",
  "devdoc": {
    "kind": "dev",
    "methods": {},
    "version": 1
  },
  "userdoc": {
    "kind": "user",
    "methods": {},
    "version": 1
  }
}